{
  "contractName": "Bet",
  "abi": [
    {
      "inputs": [
        {
          "internalType": "address",
          "name": "manager",
          "type": "address"
        },
        {
          "internalType": "uint32",
          "name": "matchId",
          "type": "uint32"
        },
        {
          "internalType": "uint32",
          "name": "minAmount",
          "type": "uint32"
        }
      ],
      "stateMutability": "nonpayable",
      "type": "constructor"
    },
    {
      "inputs": [],
      "name": "getMatchId",
      "outputs": [
        {
          "internalType": "uint32",
          "name": "",
          "type": "uint32"
        }
      ],
      "stateMutability": "view",
      "type": "function"
    },
    {
      "inputs": [],
      "name": "getManager",
      "outputs": [
        {
          "internalType": "address",
          "name": "",
          "type": "address"
        }
      ],
      "stateMutability": "view",
      "type": "function"
    },
    {
      "inputs": [
        {
          "internalType": "uint8",
          "name": "home",
          "type": "uint8"
        },
        {
          "internalType": "uint8",
          "name": "away",
          "type": "uint8"
        }
      ],
      "name": "placeBet",
      "outputs": [],
      "stateMutability": "payable",
      "type": "function"
    },
    {
      "inputs": [
        {
          "internalType": "uint8",
          "name": "home",
          "type": "uint8"
        },
        {
          "internalType": "uint8",
          "name": "away",
          "type": "uint8"
        }
      ],
      "name": "findWinner",
      "outputs": [],
      "stateMutability": "nonpayable",
      "type": "function"
    }
  ],
  "bytecode": "0x60806040523480156200001157600080fd5b5060405162000d2b38038062000d2b8339818101604052810190620000379190620000f0565b826000806101000a81548173ffffffffffffffffffffffffffffffffffffffff021916908373ffffffffffffffffffffffffffffffffffffffff16021790555081600060146101000a81548163ffffffff021916908363ffffffff16021790555080600360006101000a81548163ffffffff021916908363ffffffff160217905550505050620001be565b600081519050620000d3816200018a565b92915050565b600081519050620000ea81620001a4565b92915050565b6000806000606084860312156200010657600080fd5b60006200011686828701620000c2565b93505060206200012986828701620000d9565b92505060406200013c86828701620000d9565b9150509250925092565b600062000153826200015a565b9050919050565b600073ffffffffffffffffffffffffffffffffffffffff82169050919050565b600063ffffffff82169050919050565b620001958162000146565b8114620001a157600080fd5b50565b620001af816200017a565b8114620001bb57600080fd5b50565b610b5d80620001ce6000396000f3fe60806040526004361061003f5760003560e01c8063153dc18214610044578063a648567b1461006f578063d50095841461008b578063d8aea690146100b6575b600080fd5b34801561005057600080fd5b506100596100df565b604051610066919061092e565b60405180910390f35b610089600480360381019061008491906107ad565b6100f8565b005b34801561009757600080fd5b506100a061038d565b6040516100ad9190610893565b60405180910390f35b3480156100c257600080fd5b506100dd60048036038101906100d891906107ad565b6103b6565b005b60008060149054906101000a900463ffffffff16905090565b600360009054906101000a900463ffffffff1663ffffffff163411610152576040517f08c379a00000000000000000000000000000000000000000000000000000000081526004016101499061090e565b60405180910390fd5b6000600160003373ffffffffffffffffffffffffffffffffffffffff1673ffffffffffffffffffffffffffffffffffffffff168152602001908152602001600020604051806060016040529081600082015481526020016001820160009054906101000a900460ff1660ff1660ff1681526020016001820160019054906101000a900460ff1660ff1660ff16815250509050600081600001511461022b576040517f08c379a0000000000000000000000000000000000000000000000000000000008152600401610222906108ae565b60405180910390fd5b600360ff1660028054905010610276576040517f08c379a000000000000000000000000000000000000000000000000000000000815260040161026d906108ee565b60405180910390fd5b60405180606001604052803481526020018460ff1681526020018360ff16815250600160003373ffffffffffffffffffffffffffffffffffffffff1673ffffffffffffffffffffffffffffffffffffffff1681526020019081526020016000206000820151816000015560208201518160010160006101000a81548160ff021916908360ff16021790555060408201518160010160016101000a81548160ff021916908360ff1602179055509050506002339080600181540180825580915050600190039060005260206000200160009091909190916101000a81548173ffffffffffffffffffffffffffffffffffffffff021916908373ffffffffffffffffffffffffffffffffffffffff160217905550505050565b60008060009054906101000a900473ffffffffffffffffffffffffffffffffffffffff16905090565b60008054906101000a900473ffffffffffffffffffffffffffffffffffffffff1673ffffffffffffffffffffffffffffffffffffffff163373ffffffffffffffffffffffffffffffffffffffff1614610444576040517f08c379a000000000000000000000000000000000000000000000000000000000815260040161043b906108ce565b60405180910390fd5b6000600360ff1667ffffffffffffffff81111561048a577f4e487b7100000000000000000000000000000000000000000000000000000000600052604160045260246000fd5b6040519080825280602002602001820160405280156104b85781602001602082028036833780820191505090505b5090506000805b6002805490508160ff1610156106c857600060028260ff168154811061050e577f4e487b7100000000000000000000000000000000000000000000000000000000600052603260045260246000fd5b9060005260206000200160009054906101000a900473ffffffffffffffffffffffffffffffffffffffff1690506000600160008373ffffffffffffffffffffffffffffffffffffffff1673ffffffffffffffffffffffffffffffffffffffff168152602001908152602001600020604051806060016040529081600082015481526020016001820160009054906101000a900460ff1660ff1660ff1681526020016001820160019054906101000a900460ff1660ff1660ff168152505090506000816000015111610608577f4e487b7100000000000000000000000000000000000000000000000000000000600052600160045260246000fd5b806020015160ff168760ff1614801561062a5750806040015160ff168660ff16145b156106b3578185858061063c906109e4565b965060ff1681518110610678577f4e487b7100000000000000000000000000000000000000000000000000000000600052603260045260246000fd5b602002602001019073ffffffffffffffffffffffffffffffffffffffff16908173ffffffffffffffffffffffffffffffffffffffff16815250505b505080806106c0906109e4565b9150506104bf565b5060008160ff16476106da919061095a565b905060005b8260ff168160ff161015610790576000848260ff168151811061072b577f4e487b7100000000000000000000000000000000000000000000000000000000600052603260045260246000fd5b602002602001015190508073ffffffffffffffffffffffffffffffffffffffff166108fc849081150290604051600060405180830381858888f1935050505015801561077b573d6000803e3d6000fd5b50508080610788906109e4565b9150506106df565b505050505050565b6000813590506107a781610b10565b92915050565b600080604083850312156107c057600080fd5b60006107ce85828601610798565b92505060206107df85828601610798565b9150509250929050565b6107f28161098b565b82525050565b6000610805601983610949565b915061081082610a6c565b602082019050919050565b6000610828601e83610949565b915061083382610a95565b602082019050919050565b600061084b601c83610949565b915061085682610abe565b602082019050919050565b600061086e601e83610949565b915061087982610ae7565b602082019050919050565b61088d816109c7565b82525050565b60006020820190506108a860008301846107e9565b92915050565b600060208201905081810360008301526108c7816107f8565b9050919050565b600060208201905081810360008301526108e78161081b565b9050919050565b600060208201905081810360008301526109078161083e565b9050919050565b6000602082019050818103600083015261092781610861565b9050919050565b60006020820190506109436000830184610884565b92915050565b600082825260208201905092915050565b6000610965826109bd565b9150610970836109bd565b9250826109805761097f610a3d565b5b828204905092915050565b60006109968261099d565b9050919050565b600073ffffffffffffffffffffffffffffffffffffffff82169050919050565b6000819050919050565b600063ffffffff82169050919050565b600060ff82169050919050565b60006109ef826109d7565b915060ff821415610a0357610a02610a0e565b5b600182019050919050565b7f4e487b7100000000000000000000000000000000000000000000000000000000600052601160045260246000fd5b7f4e487b7100000000000000000000000000000000000000000000000000000000600052601260045260246000fd5b7f30783030333a20416c7265616479206f6e207468652062657400000000000000600082015250565b7f30783030313a20596f75206d75737420626520746865206d616e616765720000600082015250565b7f30783030343a20546f6f206d756368207061727469636970616e747300000000600082015250565b7f30783030323a204e65656420746f2067697665206d6f72652065746865720000600082015250565b610b19816109d7565b8114610b2457600080fd5b5056fea26469706673582212206e0a2dba1267ef9695c3c15548e50a21bb9a70676c553f3b0974640795da896e64736f6c63430008040033",
  "immutableReferences": {},
  "source": "// SPDX-License-Identifier: GPL-3.0\n\npragma solidity ^0.8.4;\n\ncontract Bet {\n    \n    struct Result {\n        uint256 amount;\n        uint8 home;\n        uint8 away;\n    }\n    \n    \n    address private _manager;\n    uint32 private _matchId;\n    uint8 private constant maxParticipants = 3;\n    mapping(address => Result) _participants;\n    address[] private _participantList;\n    uint32 private _minAmount;\n    \n    constructor(address manager, uint32 matchId, uint32 minAmount){\n        _manager = manager;\n        _matchId = matchId;\n        _minAmount = minAmount;\n    }\n    \n    modifier requireManager(){\n        require(msg.sender == _manager, \"0x001: You must be the manager\");\n        _;\n    }\n    \n    \n    function getMatchId() public view returns(uint32){\n        return _matchId;\n    }\n    \n    function getManager() public view returns(address){\n        return _manager;\n    }\n    \n    function placeBet(uint8 home, uint8 away) public payable {\n        require(msg.value > _minAmount, \"0x002: Need to give more ether\");\n        Result memory actual = _participants[msg.sender];\n        require(actual.amount == 0, \"0x003: Already on the bet\");\n        require(_participantList.length < maxParticipants, \"0x004: Too much participants\");\n        _participants[msg.sender] = Result({amount: msg.value, home: home, away: away});\n        _participantList.push(msg.sender);\n    }\n    \n    function findWinner(uint8 home, uint8 away) public requireManager {\n        address[] memory winners = new address[](maxParticipants);\n        uint8 count = 0;\n        for(uint8 i = 0; i < _participantList.length; i++){\n            address participant = _participantList[i];\n            Result memory participantResult = _participants[participant];\n            assert(participantResult.amount > 0);\n            if(home == participantResult.home && away == participantResult.away){\n                winners[count++] = participant;\n            }\n        }\n        uint amount = address(this).balance / count;\n        for(uint8 i = 0; i < count; i++){\n            address payable winner = payable(winners[i]);\n            winner.transfer(amount);\n        }\n    }   \n}\n",
  "sourcePath": "C:/Users/thord/Documents/ethereum/crypto-bet/contracts/Bet.sol",
  "compiler": {
    "name": "solc",
    "version": "0.8.4+commit.c7e474f2.Emscripten.clang"
  },
  "schemaVersion": "3.4.0",
  "updatedAt": "2021-05-09T22:08:23.173Z",
  "devdoc": {
    "kind": "dev",
    "methods": {},
    "version": 1
  },
  "userdoc": {
    "kind": "user",
    "methods": {},
    "version": 1
  }
}