{
  "contractName": "BetFactory",
  "abi": [
    {
      "inputs": [],
      "stateMutability": "nonpayable",
      "type": "constructor"
    },
    {
      "inputs": [],
      "name": "OracleConnectionError",
      "type": "error"
    },
    {
      "inputs": [
        {
          "internalType": "uint16",
          "name": "matchId",
          "type": "uint16"
        },
        {
          "internalType": "uint32",
          "name": "minAmount",
          "type": "uint32"
        }
      ],
      "name": "createBet",
      "outputs": [
        {
          "internalType": "address",
          "name": "",
          "type": "address"
        }
      ],
      "stateMutability": "nonpayable",
      "type": "function"
    },
    {
      "inputs": [],
      "name": "getOracleAddress",
      "outputs": [
        {
          "internalType": "address",
          "name": "",
          "type": "address"
        }
      ],
      "stateMutability": "view",
      "type": "function"
    },
    {
      "inputs": [
        {
          "internalType": "address",
          "name": "oracleAddress",
          "type": "address"
        }
      ],
      "name": "setOracleAddress",
      "outputs": [],
      "stateMutability": "nonpayable",
      "type": "function"
    },
    {
      "inputs": [
        {
          "internalType": "address",
          "name": "newManager",
          "type": "address"
        }
      ],
      "name": "setManager",
      "outputs": [],
      "stateMutability": "nonpayable",
      "type": "function"
    },
    {
      "inputs": [],
      "name": "betListCount",
      "outputs": [
        {
          "internalType": "uint256",
          "name": "",
          "type": "uint256"
        }
      ],
      "stateMutability": "view",
      "type": "function"
    }
  ],
  "bytecode": "0x608060405234801561001057600080fd5b50336000806101000a81548173ffffffffffffffffffffffffffffffffffffffff021916908373ffffffffffffffffffffffffffffffffffffffff16021790555061164f806100606000396000f3fe608060405234801561001057600080fd5b50600436106100575760003560e01c806346459cc01461005c5780634c69c00f1461007a578063b18b78dd14610096578063d0ebdbe7146100b4578063f4ad5281146100d0575b600080fd5b610064610100565b604051610071919061079c565b60405180910390f35b610094600480360381019061008f91906105fa565b61010d565b005b61009e610309565b6040516100ab919061070a565b60405180910390f35b6100ce60048036038101906100c991906105fa565b610333565b005b6100ea60048036038101906100e5919061064c565b61043e565b6040516100f7919061070a565b60405180910390f35b6000600280549050905090565b60008054906101000a900473ffffffffffffffffffffffffffffffffffffffff1673ffffffffffffffffffffffffffffffffffffffff163373ffffffffffffffffffffffffffffffffffffffff161461019b576040517f08c379a00000000000000000000000000000000000000000000000000000000081526004016101929061077c565b60405180910390fd5b600073ffffffffffffffffffffffffffffffffffffffff168173ffffffffffffffffffffffffffffffffffffffff16141561020b576040517f08c379a00000000000000000000000000000000000000000000000000000000081526004016102029061075c565b60405180910390fd5b60008190508073ffffffffffffffffffffffffffffffffffffffff16633412a15c6040518163ffffffff1660e01b815260040160206040518083038186803b15801561025657600080fd5b505afa15801561026a573d6000803e3d6000fd5b505050506040513d601f19601f8201168201806040525081019061028e9190610623565b6102c4576040517ff3197d9100000000000000000000000000000000000000000000000000000000815260040160405180910390fd5b81600160006101000a81548173ffffffffffffffffffffffffffffffffffffffff021916908373ffffffffffffffffffffffffffffffffffffffff1602179055505050565b6000600160009054906101000a900473ffffffffffffffffffffffffffffffffffffffff16905090565b60008054906101000a900473ffffffffffffffffffffffffffffffffffffffff1673ffffffffffffffffffffffffffffffffffffffff163373ffffffffffffffffffffffffffffffffffffffff16146103c1576040517f08c379a00000000000000000000000000000000000000000000000000000000081526004016103b89061077c565b60405180910390fd5b600073ffffffffffffffffffffffffffffffffffffffff168173ffffffffffffffffffffffffffffffffffffffff1614156103fb57600080fd5b806000806101000a81548173ffffffffffffffffffffffffffffffffffffffff021916908373ffffffffffffffffffffffffffffffffffffffff16021790555050565b60008060009054906101000a900473ffffffffffffffffffffffffffffffffffffffff1673ffffffffffffffffffffffffffffffffffffffff163373ffffffffffffffffffffffffffffffffffffffff16146104cf576040517f08c379a00000000000000000000000000000000000000000000000000000000081526004016104c69061077c565b60405180910390fd5b60008060009054906101000a900473ffffffffffffffffffffffffffffffffffffffff16848460405161050190610599565b61050d93929190610725565b604051809103906000f080158015610529573d6000803e3d6000fd5b5090506002819080600181540180825580915050600190039060005260206000200160009091909190916101000a81548173ffffffffffffffffffffffffffffffffffffffff021916908373ffffffffffffffffffffffffffffffffffffffff1602179055508091505092915050565b610d2b806108ef83390190565b6000813590506105b581610892565b92915050565b6000815190506105ca816108a9565b92915050565b6000813590506105df816108c0565b92915050565b6000813590506105f4816108d7565b92915050565b60006020828403121561060c57600080fd5b600061061a848285016105a6565b91505092915050565b60006020828403121561063557600080fd5b6000610643848285016105bb565b91505092915050565b6000806040838503121561065f57600080fd5b600061066d858286016105d0565b925050602061067e858286016105e5565b9150509250929050565b610691816107c8565b82525050565b60006106a4601d836107b7565b91506106af82610840565b602082019050919050565b60006106c76018836107b7565b91506106d282610869565b602082019050919050565b6106e68161082e565b82525050565b6106f581610814565b82525050565b6107048161081e565b82525050565b600060208201905061071f6000830184610688565b92915050565b600060608201905061073a6000830186610688565b61074760208301856106dd565b61075460408301846106fb565b949350505050565b6000602082019050818103600083015261077581610697565b9050919050565b60006020820190508181036000830152610795816106ba565b9050919050565b60006020820190506107b160008301846106ec565b92915050565b600082825260208201905092915050565b60006107d3826107f4565b9050919050565b60008115159050919050565b600061ffff82169050919050565b600073ffffffffffffffffffffffffffffffffffffffff82169050919050565b6000819050919050565b600063ffffffff82169050919050565b6000610839826107e6565b9050919050565b7f30783230313a20496e76616c6964206f7261636c652061646472657373000000600082015250565b7f30783230303a204d75737420626520746865206f776e65720000000000000000600082015250565b61089b816107c8565b81146108a657600080fd5b50565b6108b2816107da565b81146108bd57600080fd5b50565b6108c9816107e6565b81146108d457600080fd5b50565b6108e08161081e565b81146108eb57600080fd5b5056fe60806040523480156200001157600080fd5b5060405162000d2b38038062000d2b8339818101604052810190620000379190620000f0565b826000806101000a81548173ffffffffffffffffffffffffffffffffffffffff021916908373ffffffffffffffffffffffffffffffffffffffff16021790555081600060146101000a81548163ffffffff021916908363ffffffff16021790555080600360006101000a81548163ffffffff021916908363ffffffff160217905550505050620001be565b600081519050620000d3816200018a565b92915050565b600081519050620000ea81620001a4565b92915050565b6000806000606084860312156200010657600080fd5b60006200011686828701620000c2565b93505060206200012986828701620000d9565b92505060406200013c86828701620000d9565b9150509250925092565b600062000153826200015a565b9050919050565b600073ffffffffffffffffffffffffffffffffffffffff82169050919050565b600063ffffffff82169050919050565b620001958162000146565b8114620001a157600080fd5b50565b620001af816200017a565b8114620001bb57600080fd5b50565b610b5d80620001ce6000396000f3fe60806040526004361061003f5760003560e01c8063153dc18214610044578063a648567b1461006f578063d50095841461008b578063d8aea690146100b6575b600080fd5b34801561005057600080fd5b506100596100df565b604051610066919061092e565b60405180910390f35b610089600480360381019061008491906107ad565b6100f8565b005b34801561009757600080fd5b506100a061038d565b6040516100ad9190610893565b60405180910390f35b3480156100c257600080fd5b506100dd60048036038101906100d891906107ad565b6103b6565b005b60008060149054906101000a900463ffffffff16905090565b600360009054906101000a900463ffffffff1663ffffffff163411610152576040517f08c379a00000000000000000000000000000000000000000000000000000000081526004016101499061090e565b60405180910390fd5b6000600160003373ffffffffffffffffffffffffffffffffffffffff1673ffffffffffffffffffffffffffffffffffffffff168152602001908152602001600020604051806060016040529081600082015481526020016001820160009054906101000a900460ff1660ff1660ff1681526020016001820160019054906101000a900460ff1660ff1660ff16815250509050600081600001511461022b576040517f08c379a0000000000000000000000000000000000000000000000000000000008152600401610222906108ae565b60405180910390fd5b600360ff1660028054905010610276576040517f08c379a000000000000000000000000000000000000000000000000000000000815260040161026d906108ee565b60405180910390fd5b60405180606001604052803481526020018460ff1681526020018360ff16815250600160003373ffffffffffffffffffffffffffffffffffffffff1673ffffffffffffffffffffffffffffffffffffffff1681526020019081526020016000206000820151816000015560208201518160010160006101000a81548160ff021916908360ff16021790555060408201518160010160016101000a81548160ff021916908360ff1602179055509050506002339080600181540180825580915050600190039060005260206000200160009091909190916101000a81548173ffffffffffffffffffffffffffffffffffffffff021916908373ffffffffffffffffffffffffffffffffffffffff160217905550505050565b60008060009054906101000a900473ffffffffffffffffffffffffffffffffffffffff16905090565b60008054906101000a900473ffffffffffffffffffffffffffffffffffffffff1673ffffffffffffffffffffffffffffffffffffffff163373ffffffffffffffffffffffffffffffffffffffff1614610444576040517f08c379a000000000000000000000000000000000000000000000000000000000815260040161043b906108ce565b60405180910390fd5b6000600360ff1667ffffffffffffffff81111561048a577f4e487b7100000000000000000000000000000000000000000000000000000000600052604160045260246000fd5b6040519080825280602002602001820160405280156104b85781602001602082028036833780820191505090505b5090506000805b6002805490508160ff1610156106c857600060028260ff168154811061050e577f4e487b7100000000000000000000000000000000000000000000000000000000600052603260045260246000fd5b9060005260206000200160009054906101000a900473ffffffffffffffffffffffffffffffffffffffff1690506000600160008373ffffffffffffffffffffffffffffffffffffffff1673ffffffffffffffffffffffffffffffffffffffff168152602001908152602001600020604051806060016040529081600082015481526020016001820160009054906101000a900460ff1660ff1660ff1681526020016001820160019054906101000a900460ff1660ff1660ff168152505090506000816000015111610608577f4e487b7100000000000000000000000000000000000000000000000000000000600052600160045260246000fd5b806020015160ff168760ff1614801561062a5750806040015160ff168660ff16145b156106b3578185858061063c906109e4565b965060ff1681518110610678577f4e487b7100000000000000000000000000000000000000000000000000000000600052603260045260246000fd5b602002602001019073ffffffffffffffffffffffffffffffffffffffff16908173ffffffffffffffffffffffffffffffffffffffff16815250505b505080806106c0906109e4565b9150506104bf565b5060008160ff16476106da919061095a565b905060005b8260ff168160ff161015610790576000848260ff168151811061072b577f4e487b7100000000000000000000000000000000000000000000000000000000600052603260045260246000fd5b602002602001015190508073ffffffffffffffffffffffffffffffffffffffff166108fc849081150290604051600060405180830381858888f1935050505015801561077b573d6000803e3d6000fd5b50508080610788906109e4565b9150506106df565b505050505050565b6000813590506107a781610b10565b92915050565b600080604083850312156107c057600080fd5b60006107ce85828601610798565b92505060206107df85828601610798565b9150509250929050565b6107f28161098b565b82525050565b6000610805601983610949565b915061081082610a6c565b602082019050919050565b6000610828601e83610949565b915061083382610a95565b602082019050919050565b600061084b601c83610949565b915061085682610abe565b602082019050919050565b600061086e601e83610949565b915061087982610ae7565b602082019050919050565b61088d816109c7565b82525050565b60006020820190506108a860008301846107e9565b92915050565b600060208201905081810360008301526108c7816107f8565b9050919050565b600060208201905081810360008301526108e78161081b565b9050919050565b600060208201905081810360008301526109078161083e565b9050919050565b6000602082019050818103600083015261092781610861565b9050919050565b60006020820190506109436000830184610884565b92915050565b600082825260208201905092915050565b6000610965826109bd565b9150610970836109bd565b9250826109805761097f610a3d565b5b828204905092915050565b60006109968261099d565b9050919050565b600073ffffffffffffffffffffffffffffffffffffffff82169050919050565b6000819050919050565b600063ffffffff82169050919050565b600060ff82169050919050565b60006109ef826109d7565b915060ff821415610a0357610a02610a0e565b5b600182019050919050565b7f4e487b7100000000000000000000000000000000000000000000000000000000600052601160045260246000fd5b7f4e487b7100000000000000000000000000000000000000000000000000000000600052601260045260246000fd5b7f30783030333a20416c7265616479206f6e207468652062657400000000000000600082015250565b7f30783030313a20596f75206d75737420626520746865206d616e616765720000600082015250565b7f30783030343a20546f6f206d756368207061727469636970616e747300000000600082015250565b7f30783030323a204e65656420746f2067697665206d6f72652065746865720000600082015250565b610b19816109d7565b8114610b2457600080fd5b5056fea26469706673582212206e0a2dba1267ef9695c3c15548e50a21bb9a70676c553f3b0974640795da896e64736f6c63430008040033a2646970667358221220fc84bf709721fd216810d413be91ef0cc3a2e7440f68731b299d424e9fc4c97764736f6c63430008040033",
  "immutableReferences": {},
  "source": "// SPDX-License-Identifier: GPL-3.0\n\npragma solidity ^0.8.4;\nimport './Bet.sol';\nimport './ResultsOracle.sol';\n\ncontract BetFactory {\n\n    address private _manager;\n    address private _oracleAddress;\n    address[] betList;\n    error OracleConnectionError();\n\n    constructor(){\n        _manager = msg.sender;\n    }\n\n    function createBet(uint16 matchId, uint32 minAmount) public onlyManager returns (address) {\n        address bet = address(new Bet(_manager, matchId, minAmount ));\n        betList.push(bet);\n        return bet;\n    }\n    \n    modifier onlyManager(){\n        require(msg.sender == _manager, \"0x200: Must be the owner\");\n        _;\n    }\n\n    function getOracleAddress() public view returns (address){\n        return _oracleAddress;\n    }\n\n    function setOracleAddress(address oracleAddress) public onlyManager {\n        require(oracleAddress != address(0), \"0x201: Invalid oracle address\");\n        ResultsOracle oracle = ResultsOracle(oracleAddress);\n        if(!oracle.testConnection()){\n            revert OracleConnectionError();\n        }\n        _oracleAddress = oracleAddress;\n    }\n\n    function setManager(address newManager) public onlyManager {\n        require(newManager != address(0));\n        _manager = newManager;\n    }\n\n    function betListCount() public view returns (uint) {\n        return betList.length;\n    }\n\n}\n",
  "sourcePath": "C:/Users/thord/Documents/ethereum/crypto-bet/contracts/BetFactory.sol",
  "compiler": {
    "name": "solc",
    "version": "0.8.4+commit.c7e474f2.Emscripten.clang"
  },
  "schemaVersion": "3.4.0",
  "updatedAt": "2021-05-09T22:07:33.374Z",
  "devdoc": {
    "kind": "dev",
    "methods": {},
    "version": 1
  },
  "userdoc": {
    "kind": "user",
    "methods": {},
    "version": 1
  }
}