{
  "contractName": "ResultsOracleImpl",
  "abi": [
    {
      "inputs": [
        {
          "internalType": "address",
          "name": "newManager",
          "type": "address"
        }
      ],
      "name": "setManager",
      "outputs": [],
      "stateMutability": "nonpayable",
      "type": "function"
    },
    {
      "inputs": [
        {
          "internalType": "uint16",
          "name": "matchId",
          "type": "uint16"
        },
        {
          "internalType": "uint8",
          "name": "home",
          "type": "uint8"
        },
        {
          "internalType": "uint8",
          "name": "away",
          "type": "uint8"
        }
      ],
      "name": "setResult",
      "outputs": [],
      "stateMutability": "nonpayable",
      "type": "function"
    },
    {
      "inputs": [
        {
          "internalType": "uint16",
          "name": "matchId",
          "type": "uint16"
        }
      ],
      "name": "getResult",
      "outputs": [
        {
          "internalType": "uint8",
          "name": "",
          "type": "uint8"
        },
        {
          "internalType": "uint8",
          "name": "",
          "type": "uint8"
        }
      ],
      "stateMutability": "view",
      "type": "function"
    },
    {
      "inputs": [],
      "name": "testConnection",
      "outputs": [
        {
          "internalType": "bool",
          "name": "",
          "type": "bool"
        }
      ],
      "stateMutability": "pure",
      "type": "function"
    }
  ],
  "bytecode": "0x608060405234801561001057600080fd5b5061085e806100206000396000f3fe608060405234801561001057600080fd5b506004361061004c5760003560e01c80630865b4c2146100515780633412a15c1461008257806385a516c6146100a0578063d0ebdbe7146100bc575b600080fd5b61006b6004803603810190610066919061050f565b6100d8565b604051610079929190610689565b60405180910390f35b61008a6101be565b604051610097919061060e565b60405180910390f35b6100ba60048036038101906100b59190610538565b6101c7565b005b6100d660048036038101906100d191906104e6565b61039c565b005b6000806000600160008561ffff1661ffff1681526020019081526020016000206040518060600160405290816000820160009054906101000a900461ffff1661ffff1661ffff1681526020016000820160029054906101000a900460ff1660ff1660ff1681526020016000820160039054906101000a900460ff1660ff1660ff168152505090506000816000015161ffff16116101aa576040517f08c379a00000000000000000000000000000000000000000000000000000000081526004016101a190610649565b60405180910390fd5b806020015181604001519250925050915091565b60006001905090565b3373ffffffffffffffffffffffffffffffffffffffff1660008054906101000a900473ffffffffffffffffffffffffffffffffffffffff1673ffffffffffffffffffffffffffffffffffffffff161461021f57600080fd5b6000600160008561ffff1661ffff1681526020019081526020016000206040518060600160405290816000820160009054906101000a900461ffff1661ffff1661ffff1681526020016000820160029054906101000a900460ff1660ff1660ff1681526020016000820160039054906101000a900460ff1660ff1660ff168152505090506000816000015161ffff16146102ee576040517f08c379a00000000000000000000000000000000000000000000000000000000081526004016102e590610629565b60405180910390fd5b60405180606001604052808561ffff1681526020018460ff1681526020018360ff16815250600160008661ffff1661ffff16815260200190815260200160002060008201518160000160006101000a81548161ffff021916908361ffff16021790555060208201518160000160026101000a81548160ff021916908360ff16021790555060408201518160000160036101000a81548160ff021916908360ff16021790555090505050505050565b3373ffffffffffffffffffffffffffffffffffffffff1660008054906101000a900473ffffffffffffffffffffffffffffffffffffffff1673ffffffffffffffffffffffffffffffffffffffff16146103f457600080fd5b600073ffffffffffffffffffffffffffffffffffffffff168173ffffffffffffffffffffffffffffffffffffffff161415610464576040517f08c379a000000000000000000000000000000000000000000000000000000000815260040161045b90610669565b60405180910390fd5b806000806101000a81548173ffffffffffffffffffffffffffffffffffffffff021916908373ffffffffffffffffffffffffffffffffffffffff16021790555050565b6000813590506104b6816107e3565b92915050565b6000813590506104cb816107fa565b92915050565b6000813590506104e081610811565b92915050565b6000602082840312156104f857600080fd5b6000610506848285016104a7565b91505092915050565b60006020828403121561052157600080fd5b600061052f848285016104bc565b91505092915050565b60008060006060848603121561054d57600080fd5b600061055b868287016104bc565b935050602061056c868287016104d1565b925050604061057d868287016104d1565b9150509250925092565b610590816106d5565b82525050565b60006105a36022836106b2565b91506105ae8261071c565b604082019050919050565b60006105c66016836106b2565b91506105d18261076b565b602082019050919050565b60006105e96023836106b2565b91506105f482610794565b604082019050919050565b6106088161070f565b82525050565b60006020820190506106236000830184610587565b92915050565b6000602082019050818103600083015261064281610596565b9050919050565b60006020820190508181036000830152610662816105b9565b9050919050565b60006020820190508181036000830152610682816105dc565b9050919050565b600060408201905061069e60008301856105ff565b6106ab60208301846105ff565b9392505050565b600082825260208201905092915050565b60006106ce826106ef565b9050919050565b60008115159050919050565b600061ffff82169050919050565b600073ffffffffffffffffffffffffffffffffffffffff82169050919050565b600060ff82169050919050565b7f3078343030333a204d6174636820616c7265616479206861732061207265737560008201527f6c74000000000000000000000000000000000000000000000000000000000000602082015250565b7f30783430313a204d61746368206e6f7420666f756e6400000000000000000000600082015250565b7f3078343030323a204d616e61676572206164647265737320697320726571756960008201527f7265640000000000000000000000000000000000000000000000000000000000602082015250565b6107ec816106c3565b81146107f757600080fd5b50565b610803816106e1565b811461080e57600080fd5b50565b61081a8161070f565b811461082557600080fd5b5056fea2646970667358221220b959443554114113d361ef192be1fdd4b083fa9650d9bbdef06e58adeda2d10864736f6c63430008040033",
  "immutableReferences": {},
  "source": "// SPDX-License-Identifier: GPL-3.0\npragma solidity ^0.8.4;\n\nimport './ResultsOracle.sol';\n\ncontract ResultsOracleImpl is ResultsOracle {\n\n    struct MatchResult {\n        uint16 matchId;\n        uint8 home;\n        uint8 away;\n    }\n    address private manager;\n    mapping(uint16 => MatchResult) private results;\n\n\n    modifier requireManager(){\n        require(manager == msg.sender);\n        _;\n    }\n\n    function setManager(address newManager) public  requireManager {\n        require(newManager != address(0), \"0x4002: Manager address is required\");\n        manager = newManager;\n    }\n\n    function setResult(uint16 matchId, uint8 home, uint8 away) public requireManager {\n        MatchResult memory result = results[matchId];\n        require(result.matchId == 0, \"0x4003: Match already has a result\");\n        results[matchId] = MatchResult({matchId: matchId, home: home, away: away});\n    }\n\n    function getResult(uint16 matchId) public override view returns (uint8, uint8){\n        MatchResult memory result = results[matchId];\n        require(result.matchId > 0, \"0x401: Match not found\");\n        return (result.home, result.away);\n    }\n\n    function testConnection() public override pure returns(bool) {\n        return true;\n    }\n}\n",
  "sourcePath": "C:/Users/thord/Documents/ethereum/crypto-bet/contracts/ResultsOracleImpl.sol",
  "compiler": {
    "name": "solc",
    "version": "0.8.4+commit.c7e474f2.Emscripten.clang"
  },
  "schemaVersion": "3.4.0",
  "updatedAt": "2021-05-09T22:07:33.392Z",
  "devdoc": {
    "kind": "dev",
    "methods": {
      "getResult(uint16)": {
        "returns": {
          "_0": "amount of goals local team have scored.",
          "_1": "amount of goals away team have scored."
        }
      },
      "testConnection()": {
        "returns": {
          "_0": "true allways returns true"
        }
      }
    },
    "version": 1
  },
  "userdoc": {
    "kind": "user",
    "methods": {
      "getResult(uint16)": {
        "notice": "gets the result of the match given the id."
      },
      "testConnection()": {
        "notice": "test wether the connection has been succesfuly created or not."
      }
    },
    "version": 1
  }
}